{
	"src/Counter.sol": {
		"Counter": {
			"abi": [
				{
					"inputs": [],
					"name": "decrement",
					"outputs": [],
					"stateMutability": "nonpayable",
					"type": "function"
				},
				{
					"inputs": [],
					"name": "increment",
					"outputs": [],
					"stateMutability": "nonpayable",
					"type": "function"
				},
				{
					"inputs": [],
					"name": "number",
					"outputs": [
						{
							"internalType": "uint256",
							"name": "",
							"type": "uint256"
						}
					],
					"stateMutability": "view",
					"type": "function"
				},
				{
					"inputs": [
						{
							"internalType": "uint256",
							"name": "newNumber",
							"type": "uint256"
						}
					],
					"name": "setNumber",
					"outputs": [],
					"stateMutability": "nonpayable",
					"type": "function"
				}
			],
			"devdoc": {
				"kind": "dev",
				"methods": {},
				"version": 1
			},
			"evm": {
				"assembly": "    /* \"src/Counter.sol\":120:587  contract Counter { // declaring contract... */\n  mstore(0x40, 0x80)\n  callvalue\n  dup1\n  iszero\n  tag_1\n  jumpi\n  0x00\n  dup1\n  revert\ntag_1:\n  pop\n  dataSize(sub_0)\n  dup1\n  dataOffset(sub_0)\n  0x00\n  codecopy\n  0x00\n  return\nstop\n\nsub_0: assembly {\n        /* \"src/Counter.sol\":120:587  contract Counter { // declaring contract... */\n      mstore(0x40, 0x80)\n      callvalue\n      dup1\n      iszero\n      tag_1\n      jumpi\n      0x00\n      dup1\n      revert\n    tag_1:\n      pop\n      jumpi(tag_2, lt(calldatasize, 0x04))\n      shr(0xe0, calldataload(0x00))\n      dup1\n      0x2baeceb7\n      eq\n      tag_3\n      jumpi\n      dup1\n      0x3fb5c1cb\n      eq\n      tag_4\n      jumpi\n      dup1\n      0x8381f58a\n      eq\n      tag_5\n      jumpi\n      dup1\n      0xd09de08a\n      eq\n      tag_6\n      jumpi\n    tag_2:\n      0x00\n      dup1\n      revert\n        /* \"src/Counter.sol\":532:585  function decrement() public {... */\n    tag_3:\n      tag_7\n      tag_8\n      jump\t// in\n    tag_7:\n      stop\n        /* \"src/Counter.sol\":299:467  function setNumber(uint256 newNumber) public { // function to set the value of number... */\n    tag_4:\n      tag_9\n      0x04\n      dup1\n      calldatasize\n      sub\n      dup2\n      add\n      swap1\n      tag_10\n      swap2\n      swap1\n      tag_11\n      jump\t// in\n    tag_10:\n      tag_12\n      jump\t// in\n    tag_9:\n      stop\n        /* \"src/Counter.sol\":165:186  uint256 public number */\n    tag_5:\n      tag_13\n      tag_14\n      jump\t// in\n    tag_13:\n      mload(0x40)\n      tag_15\n      swap2\n      swap1\n      tag_16\n      jump\t// in\n    tag_15:\n      mload(0x40)\n      dup1\n      swap2\n      sub\n      swap1\n      return\n        /* \"src/Counter.sol\":473:526  function increment() public {... */\n    tag_6:\n      tag_17\n      tag_18\n      jump\t// in\n    tag_17:\n      stop\n        /* \"src/Counter.sol\":532:585  function decrement() public {... */\n    tag_8:\n        /* \"src/Counter.sol\":570:576  number */\n      0x00\n      dup1\n        /* \"src/Counter.sol\":570:578  number-- */\n      dup2\n      sload\n      dup1\n      swap3\n      swap2\n      swap1\n      tag_20\n      swap1\n      tag_21\n      jump\t// in\n    tag_20:\n      swap2\n      swap1\n      pop\n      sstore\n      pop\n        /* \"src/Counter.sol\":532:585  function decrement() public {... */\n      jump\t// out\n        /* \"src/Counter.sol\":299:467  function setNumber(uint256 newNumber) public { // function to set the value of number... */\n    tag_12:\n        /* \"src/Counter.sol\":402:411  newNumber */\n      dup1\n        /* \"src/Counter.sol\":393:399  number */\n      0x00\n        /* \"src/Counter.sol\":393:411  number = newNumber */\n      dup2\n      swap1\n      sstore\n      pop\n        /* \"src/Counter.sol\":299:467  function setNumber(uint256 newNumber) public { // function to set the value of number... */\n      pop\n      jump\t// out\n        /* \"src/Counter.sol\":165:186  uint256 public number */\n    tag_14:\n      sload(0x00)\n      dup2\n      jump\t// out\n        /* \"src/Counter.sol\":473:526  function increment() public {... */\n    tag_18:\n        /* \"src/Counter.sol\":511:517  number */\n      0x00\n      dup1\n        /* \"src/Counter.sol\":511:519  number++ */\n      dup2\n      sload\n      dup1\n      swap3\n      swap2\n      swap1\n      tag_24\n      swap1\n      tag_25\n      jump\t// in\n    tag_24:\n      swap2\n      swap1\n      pop\n      sstore\n      pop\n        /* \"src/Counter.sol\":473:526  function increment() public {... */\n      jump\t// out\n        /* \"#utility.yul\":88:205   */\n    tag_27:\n        /* \"#utility.yul\":197:198   */\n      0x00\n        /* \"#utility.yul\":194:195   */\n      dup1\n        /* \"#utility.yul\":187:199   */\n      revert\n        /* \"#utility.yul\":334:411   */\n    tag_29:\n        /* \"#utility.yul\":371:378   */\n      0x00\n        /* \"#utility.yul\":400:405   */\n      dup2\n        /* \"#utility.yul\":389:405   */\n      swap1\n      pop\n        /* \"#utility.yul\":334:411   */\n      swap2\n      swap1\n      pop\n      jump\t// out\n        /* \"#utility.yul\":417:539   */\n    tag_30:\n        /* \"#utility.yul\":490:514   */\n      tag_40\n        /* \"#utility.yul\":508:513   */\n      dup2\n        /* \"#utility.yul\":490:514   */\n      tag_29\n      jump\t// in\n    tag_40:\n        /* \"#utility.yul\":483:488   */\n      dup2\n        /* \"#utility.yul\":480:515   */\n      eq\n        /* \"#utility.yul\":470:533   */\n      tag_41\n      jumpi\n        /* \"#utility.yul\":529:530   */\n      0x00\n        /* \"#utility.yul\":526:527   */\n      dup1\n        /* \"#utility.yul\":519:531   */\n      revert\n        /* \"#utility.yul\":470:533   */\n    tag_41:\n        /* \"#utility.yul\":417:539   */\n      pop\n      jump\t// out\n        /* \"#utility.yul\":545:684   */\n    tag_31:\n        /* \"#utility.yul\":591:596   */\n      0x00\n        /* \"#utility.yul\":629:635   */\n      dup2\n        /* \"#utility.yul\":616:636   */\n      calldataload\n        /* \"#utility.yul\":607:636   */\n      swap1\n      pop\n        /* \"#utility.yul\":645:678   */\n      tag_43\n        /* \"#utility.yul\":672:677   */\n      dup2\n        /* \"#utility.yul\":645:678   */\n      tag_30\n      jump\t// in\n    tag_43:\n        /* \"#utility.yul\":545:684   */\n      swap3\n      swap2\n      pop\n      pop\n      jump\t// out\n        /* \"#utility.yul\":690:1019   */\n    tag_11:\n        /* \"#utility.yul\":749:755   */\n      0x00\n        /* \"#utility.yul\":798:800   */\n      0x20\n        /* \"#utility.yul\":786:795   */\n      dup3\n        /* \"#utility.yul\":777:784   */\n      dup5\n        /* \"#utility.yul\":773:796   */\n      sub\n        /* \"#utility.yul\":769:801   */\n      slt\n        /* \"#utility.yul\":766:885   */\n      iszero\n      tag_45\n      jumpi\n        /* \"#utility.yul\":804:883   */\n      tag_46\n      tag_27\n      jump\t// in\n    tag_46:\n        /* \"#utility.yul\":766:885   */\n    tag_45:\n        /* \"#utility.yul\":924:925   */\n      0x00\n        /* \"#utility.yul\":949:1002   */\n      tag_47\n        /* \"#utility.yul\":994:1001   */\n      dup5\n        /* \"#utility.yul\":985:991   */\n      dup3\n        /* \"#utility.yul\":974:983   */\n      dup6\n        /* \"#utility.yul\":970:992   */\n      add\n        /* \"#utility.yul\":949:1002   */\n      tag_31\n      jump\t// in\n    tag_47:\n        /* \"#utility.yul\":939:1002   */\n      swap2\n      pop\n        /* \"#utility.yul\":895:1012   */\n      pop\n        /* \"#utility.yul\":690:1019   */\n      swap3\n      swap2\n      pop\n      pop\n      jump\t// out\n        /* \"#utility.yul\":1025:1143   */\n    tag_32:\n        /* \"#utility.yul\":1112:1136   */\n      tag_49\n        /* \"#utility.yul\":1130:1135   */\n      dup2\n        /* \"#utility.yul\":1112:1136   */\n      tag_29\n      jump\t// in\n    tag_49:\n        /* \"#utility.yul\":1107:1110   */\n      dup3\n        /* \"#utility.yul\":1100:1137   */\n      mstore\n        /* \"#utility.yul\":1025:1143   */\n      pop\n      pop\n      jump\t// out\n        /* \"#utility.yul\":1149:1371   */\n    tag_16:\n        /* \"#utility.yul\":1242:1246   */\n      0x00\n        /* \"#utility.yul\":1280:1282   */\n      0x20\n        /* \"#utility.yul\":1269:1278   */\n      dup3\n        /* \"#utility.yul\":1265:1283   */\n      add\n        /* \"#utility.yul\":1257:1283   */\n      swap1\n      pop\n        /* \"#utility.yul\":1293:1364   */\n      tag_51\n        /* \"#utility.yul\":1361:1362   */\n      0x00\n        /* \"#utility.yul\":1350:1359   */\n      dup4\n        /* \"#utility.yul\":1346:1363   */\n      add\n        /* \"#utility.yul\":1337:1343   */\n      dup5\n        /* \"#utility.yul\":1293:1364   */\n      tag_32\n      jump\t// in\n    tag_51:\n        /* \"#utility.yul\":1149:1371   */\n      swap3\n      swap2\n      pop\n      pop\n      jump\t// out\n        /* \"#utility.yul\":1377:1557   */\n    tag_33:\n        /* \"#utility.yul\":1425:1502   */\n      0x4e487b7100000000000000000000000000000000000000000000000000000000\n        /* \"#utility.yul\":1422:1423   */\n      0x00\n        /* \"#utility.yul\":1415:1503   */\n      mstore\n        /* \"#utility.yul\":1522:1526   */\n      0x11\n        /* \"#utility.yul\":1519:1520   */\n      0x04\n        /* \"#utility.yul\":1512:1527   */\n      mstore\n        /* \"#utility.yul\":1546:1550   */\n      0x24\n        /* \"#utility.yul\":1543:1544   */\n      0x00\n        /* \"#utility.yul\":1536:1551   */\n      revert\n        /* \"#utility.yul\":1563:1734   */\n    tag_21:\n        /* \"#utility.yul\":1602:1605   */\n      0x00\n        /* \"#utility.yul\":1625:1649   */\n      tag_54\n        /* \"#utility.yul\":1643:1648   */\n      dup3\n        /* \"#utility.yul\":1625:1649   */\n      tag_29\n      jump\t// in\n    tag_54:\n        /* \"#utility.yul\":1616:1649   */\n      swap2\n      pop\n        /* \"#utility.yul\":1671:1675   */\n      0x00\n        /* \"#utility.yul\":1664:1669   */\n      dup3\n        /* \"#utility.yul\":1661:1676   */\n      sub\n        /* \"#utility.yul\":1658:1699   */\n      tag_55\n      jumpi\n        /* \"#utility.yul\":1679:1697   */\n      tag_56\n      tag_33\n      jump\t// in\n    tag_56:\n        /* \"#utility.yul\":1658:1699   */\n    tag_55:\n        /* \"#utility.yul\":1726:1727   */\n      0x01\n        /* \"#utility.yul\":1719:1724   */\n      dup3\n        /* \"#utility.yul\":1715:1728   */\n      sub\n        /* \"#utility.yul\":1708:1728   */\n      swap1\n      pop\n        /* \"#utility.yul\":1563:1734   */\n      swap2\n      swap1\n      pop\n      jump\t// out\n        /* \"#utility.yul\":1740:1973   */\n    tag_25:\n        /* \"#utility.yul\":1779:1782   */\n      0x00\n        /* \"#utility.yul\":1802:1826   */\n      tag_58\n        /* \"#utility.yul\":1820:1825   */\n      dup3\n        /* \"#utility.yul\":1802:1826   */\n      tag_29\n      jump\t// in\n    tag_58:\n        /* \"#utility.yul\":1793:1826   */\n      swap2\n      pop\n        /* \"#utility.yul\":1848:1914   */\n      0xffffffffffffffffffffffffffffffffffffffffffffffffffffffffffffffff\n        /* \"#utility.yul\":1841:1846   */\n      dup3\n        /* \"#utility.yul\":1838:1915   */\n      sub\n        /* \"#utility.yul\":1835:1938   */\n      tag_59\n      jumpi\n        /* \"#utility.yul\":1918:1936   */\n      tag_60\n      tag_33\n      jump\t// in\n    tag_60:\n        /* \"#utility.yul\":1835:1938   */\n    tag_59:\n        /* \"#utility.yul\":1965:1966   */\n      0x01\n        /* \"#utility.yul\":1958:1963   */\n      dup3\n        /* \"#utility.yul\":1954:1967   */\n      add\n        /* \"#utility.yul\":1947:1967   */\n      swap1\n      pop\n        /* \"#utility.yul\":1740:1973   */\n      swap2\n      swap1\n      pop\n      jump\t// out\n\n    auxdata: 0xa26469706673582212208f6af927ea0a65e2a88676a548704020db7f81ecc0c745ecf75d5783c4756f3f64736f6c634300081a0033\n}\n",
				"bytecode": {
					"linkReferences": {},
					"object": "6080604052348015600e575f80fd5b506102358061001c5f395ff3fe608060405234801561000f575f80fd5b506004361061004a575f3560e01c80632baeceb71461004e5780633fb5c1cb146100585780638381f58a14610074578063d09de08a14610092575b5f80fd5b61005661009c565b005b610072600480360381019061006d9190610111565b6100b4565b005b61007c6100bd565b604051610089919061014b565b60405180910390f35b61009a6100c2565b005b5f808154809291906100ad90610191565b9190505550565b805f8190555050565b5f5481565b5f808154809291906100d3906101b8565b9190505550565b5f80fd5b5f819050919050565b6100f0816100de565b81146100fa575f80fd5b50565b5f8135905061010b816100e7565b92915050565b5f60208284031215610126576101256100da565b5b5f610133848285016100fd565b91505092915050565b610145816100de565b82525050565b5f60208201905061015e5f83018461013c565b92915050565b7f4e487b71000000000000000000000000000000000000000000000000000000005f52601160045260245ffd5b5f61019b826100de565b91505f82036101ad576101ac610164565b5b600182039050919050565b5f6101c2826100de565b91507fffffffffffffffffffffffffffffffffffffffffffffffffffffffffffffffff82036101f4576101f3610164565b5b60018201905091905056fea26469706673582212208f6af927ea0a65e2a88676a548704020db7f81ecc0c745ecf75d5783c4756f3f64736f6c634300081a0033",
					"opcodes": "PUSH1 0x80 PUSH1 0x40 MSTORE CALLVALUE DUP1 ISZERO PUSH1 0xE JUMPI PUSH0 DUP1 REVERT JUMPDEST POP PUSH2 0x235 DUP1 PUSH2 0x1C PUSH0 CODECOPY PUSH0 RETURN INVALID PUSH1 0x80 PUSH1 0x40 MSTORE CALLVALUE DUP1 ISZERO PUSH2 0xF JUMPI PUSH0 DUP1 REVERT JUMPDEST POP PUSH1 0x4 CALLDATASIZE LT PUSH2 0x4A JUMPI PUSH0 CALLDATALOAD PUSH1 0xE0 SHR DUP1 PUSH4 0x2BAECEB7 EQ PUSH2 0x4E JUMPI DUP1 PUSH4 0x3FB5C1CB EQ PUSH2 0x58 JUMPI DUP1 PUSH4 0x8381F58A EQ PUSH2 0x74 JUMPI DUP1 PUSH4 0xD09DE08A EQ PUSH2 0x92 JUMPI JUMPDEST PUSH0 DUP1 REVERT JUMPDEST PUSH2 0x56 PUSH2 0x9C JUMP JUMPDEST STOP JUMPDEST PUSH2 0x72 PUSH1 0x4 DUP1 CALLDATASIZE SUB DUP2 ADD SWAP1 PUSH2 0x6D SWAP2 SWAP1 PUSH2 0x111 JUMP JUMPDEST PUSH2 0xB4 JUMP JUMPDEST STOP JUMPDEST PUSH2 0x7C PUSH2 0xBD JUMP JUMPDEST PUSH1 0x40 MLOAD PUSH2 0x89 SWAP2 SWAP1 PUSH2 0x14B JUMP JUMPDEST PUSH1 0x40 MLOAD DUP1 SWAP2 SUB SWAP1 RETURN JUMPDEST PUSH2 0x9A PUSH2 0xC2 JUMP JUMPDEST STOP JUMPDEST PUSH0 DUP1 DUP2 SLOAD DUP1 SWAP3 SWAP2 SWAP1 PUSH2 0xAD SWAP1 PUSH2 0x191 JUMP JUMPDEST SWAP2 SWAP1 POP SSTORE POP JUMP JUMPDEST DUP1 PUSH0 DUP2 SWAP1 SSTORE POP POP JUMP JUMPDEST PUSH0 SLOAD DUP2 JUMP JUMPDEST PUSH0 DUP1 DUP2 SLOAD DUP1 SWAP3 SWAP2 SWAP1 PUSH2 0xD3 SWAP1 PUSH2 0x1B8 JUMP JUMPDEST SWAP2 SWAP1 POP SSTORE POP JUMP JUMPDEST PUSH0 DUP1 REVERT JUMPDEST PUSH0 DUP2 SWAP1 POP SWAP2 SWAP1 POP JUMP JUMPDEST PUSH2 0xF0 DUP2 PUSH2 0xDE JUMP JUMPDEST DUP2 EQ PUSH2 0xFA JUMPI PUSH0 DUP1 REVERT JUMPDEST POP JUMP JUMPDEST PUSH0 DUP2 CALLDATALOAD SWAP1 POP PUSH2 0x10B DUP2 PUSH2 0xE7 JUMP JUMPDEST SWAP3 SWAP2 POP POP JUMP JUMPDEST PUSH0 PUSH1 0x20 DUP3 DUP5 SUB SLT ISZERO PUSH2 0x126 JUMPI PUSH2 0x125 PUSH2 0xDA JUMP JUMPDEST JUMPDEST PUSH0 PUSH2 0x133 DUP5 DUP3 DUP6 ADD PUSH2 0xFD JUMP JUMPDEST SWAP2 POP POP SWAP3 SWAP2 POP POP JUMP JUMPDEST PUSH2 0x145 DUP2 PUSH2 0xDE JUMP JUMPDEST DUP3 MSTORE POP POP JUMP JUMPDEST PUSH0 PUSH1 0x20 DUP3 ADD SWAP1 POP PUSH2 0x15E PUSH0 DUP4 ADD DUP5 PUSH2 0x13C JUMP JUMPDEST SWAP3 SWAP2 POP POP JUMP JUMPDEST PUSH32 0x4E487B7100000000000000000000000000000000000000000000000000000000 PUSH0 MSTORE PUSH1 0x11 PUSH1 0x4 MSTORE PUSH1 0x24 PUSH0 REVERT JUMPDEST PUSH0 PUSH2 0x19B DUP3 PUSH2 0xDE JUMP JUMPDEST SWAP2 POP PUSH0 DUP3 SUB PUSH2 0x1AD JUMPI PUSH2 0x1AC PUSH2 0x164 JUMP JUMPDEST JUMPDEST PUSH1 0x1 DUP3 SUB SWAP1 POP SWAP2 SWAP1 POP JUMP JUMPDEST PUSH0 PUSH2 0x1C2 DUP3 PUSH2 0xDE JUMP JUMPDEST SWAP2 POP PUSH32 0xFFFFFFFFFFFFFFFFFFFFFFFFFFFFFFFFFFFFFFFFFFFFFFFFFFFFFFFFFFFFFFFF DUP3 SUB PUSH2 0x1F4 JUMPI PUSH2 0x1F3 PUSH2 0x164 JUMP JUMPDEST JUMPDEST PUSH1 0x1 DUP3 ADD SWAP1 POP SWAP2 SWAP1 POP JUMP INVALID LOG2 PUSH5 0x6970667358 0x22 SLT KECCAK256 DUP16 PUSH11 0xF927EA0A65E2A88676A548 PUSH17 0x4020DB7F81ECC0C745ECF75D5783C4756F EXTCODEHASH PUSH5 0x736F6C6343 STOP ADDMOD BYTE STOP CALLER "
				},
				"gasEstimates": {
					"creation": {
						"codeDepositCost": "113000",
						"executionCost": "157",
						"totalCost": "113157"
					},
					"external": {
						"decrement()": "24474",
						"increment()": "24541",
						"number()": "2446",
						"setNumber(uint256)": "22514"
					}
				},
				"methodIdentifiers": {
					"decrement()": "2baeceb7",
					"increment()": "d09de08a",
					"number()": "8381f58a",
					"setNumber(uint256)": "3fb5c1cb"
				}
			},
			"storageLayout": {
				"storage": [
					{
						"astId": 3,
						"contract": "src/Counter.sol:Counter",
						"label": "number",
						"offset": 0,
						"slot": "0",
						"type": "t_uint256"
					}
				],
				"types": {
					"t_uint256": {
						"encoding": "inplace",
						"label": "uint256",
						"numberOfBytes": "32"
					}
				}
			},
			"userdoc": {
				"kind": "user",
				"methods": {},
				"version": 1
			}
		}
	}
}